{
  "contractName": "HelloWorld",
  "abi": [
    {
      "constant": false,
      "inputs": [],
      "name": "SayHello",
      "outputs": [
        {
          "name": "",
          "type": "string"
        }
      ],
      "payable": false,
      "stateMutability": "nonpayable",
      "type": "function",
      "signature": "0x3acb3150"
    }
  ],
  "bytecode": "0x608060405234801561001057600080fd5b5061013f806100206000396000f3fe608060405260043610610041576000357c0100000000000000000000000000000000000000000000000000000000900463ffffffff1680633acb315014610046575b600080fd5b34801561005257600080fd5b5061005b6100d6565b6040518080602001828103825283818151815260200191508051906020019080838360005b8381101561009b578082015181840152602081019050610080565b50505050905090810190601f1680156100c85780820380516001836020036101000a031916815260200191505b509250505060405180910390f35b60606040805190810160405280600c81526020017f48656c6c6f20576f726c6421000000000000000000000000000000000000000081525090509056fea165627a7a72305820bdce89e09ba3d4cd3aa88e522320e9cef85dd14543f5cca0b6e462a9f5dc69e60029",
  "source": "pragma solidity ^0.5.0;\r\n\r\ncontract HelloWorld \r\n{\r\n    function SayHello() public returns (string memory)\r\n    {\r\n        return \"Hello World!\";\r\n    }\r\n}",
  "sourcePath": "E:/Blockchain/DEVELOPMENT/Pluralsight - Blockchain Fundamentals/HelloWorld/contracts/HelloWorld.sol",
  "compiler": {
    "name": "solc",
    "version": "0.5.0+commit.1d4f565a.Emscripten.clang"
  },
  "schemaVersion": "3.0.1",
  "updatedAt": "2019-02-05T23:38:56.158Z",
  "devdoc": {
    "methods": {}
  },
  "userdoc": {
    "methods": {}
  }
}